{
  "_format": "hh-sol-artifact-1",
  "contractName": "EnumMapMock",
  "sourceName": "contracts/mocks/algo/EnumMapMock.sol",
  "abi": [
    {
      "anonymous": false,
      "inputs": [
        {
          "indexed": false,
          "internalType": "bool",
          "name": "result",
          "type": "bool"
        }
      ],
      "name": "OperationResult",
      "type": "event"
    },
    {
      "inputs": [
        {
          "internalType": "uint256",
          "name": "index",
          "type": "uint256"
        }
      ],
      "name": "at",
      "outputs": [
        {
          "internalType": "uint256",
          "name": "key",
          "type": "uint256"
        },
        {
          "internalType": "address",
          "name": "value",
          "type": "address"
        }
      ],
      "stateMutability": "view",
      "type": "function"
    },
    {
      "inputs": [
        {
          "internalType": "uint256",
          "name": "key",
          "type": "uint256"
        }
      ],
      "name": "contains",
      "outputs": [
        {
          "internalType": "bool",
          "name": "",
          "type": "bool"
        }
      ],
      "stateMutability": "view",
      "type": "function"
    },
    {
      "inputs": [
        {
          "internalType": "uint256",
          "name": "key",
          "type": "uint256"
        }
      ],
      "name": "get",
      "outputs": [
        {
          "internalType": "address",
          "name": "",
          "type": "address"
        }
      ],
      "stateMutability": "view",
      "type": "function"
    },
    {
      "inputs": [],
      "name": "length",
      "outputs": [
        {
          "internalType": "uint256",
          "name": "",
          "type": "uint256"
        }
      ],
      "stateMutability": "view",
      "type": "function"
    },
    {
      "inputs": [
        {
          "internalType": "uint256",
          "name": "key",
          "type": "uint256"
        }
      ],
      "name": "remove",
      "outputs": [],
      "stateMutability": "nonpayable",
      "type": "function"
    },
    {
      "inputs": [
        {
          "internalType": "uint256",
          "name": "key",
          "type": "uint256"
        },
        {
          "internalType": "address",
          "name": "value",
          "type": "address"
        }
      ],
      "name": "set",
      "outputs": [],
      "stateMutability": "nonpayable",
      "type": "function"
    }
  ],
  "bytecode": "0x608060405234801561001057600080fd5b506105dc806100206000396000f3fe608060405234801561001057600080fd5b50600436106100725760003560e01c80639507d39a116100505780639507d39a146100e9578063c34052e01461012f578063e0886f901461016057610072565b80631f7b6d32146100775780632f30c6f6146100915780634cc82215146100cc575b600080fd5b61007f6101ab565b60408051918252519081900360200190f35b6100ca600480360360408110156100a757600080fd5b508035906020013573ffffffffffffffffffffffffffffffffffffffff166101bc565b005b6100ca600480360360208110156100e257600080fd5b5035610223565b610106600480360360208110156100ff57600080fd5b5035610272565b6040805173ffffffffffffffffffffffffffffffffffffffff9092168252519081900360200190f35b61014c6004803603602081101561014557600080fd5b503561028a565b604080519115158252519081900360200190f35b61017d6004803603602081101561017657600080fd5b503561029c565b6040805192835273ffffffffffffffffffffffffffffffffffffffff90911660208301528051918290030190f35b60006101b760006102bd565b905090565b60006101e5818473ffffffffffffffffffffffffffffffffffffffff851663ffffffff6102c116565b60408051821515815290519192507fed9840e0775590557ad736875d96c95cf1458b766335f74339951a32c82a9e33919081900360200190a1505050565b6000610235818363ffffffff61035b16565b60408051821515815290519192507fed9840e0775590557ad736875d96c95cf1458b766335f74339951a32c82a9e33919081900360200190a15050565b6000610284818363ffffffff61043916565b92915050565b6000610284818363ffffffff6104e316565b60008080806102b1818663ffffffff6104fb16565b90945092505050915091565b5490565b600082815260018401602052604081205480610326575050604080518082018252838152602080820184815286546001818101895560008981528481209551600290930290950191825591519082015586548684528188019092529290912055610354565b8285600001600183038154811061033957fe5b90600052602060002090600202016001018190555060009150505b9392505050565b6000818152600183016020526040812054801561042f578354600019808301919081019060009087908390811061038e57fe5b90600052602060002090600202019050808760000184815481106103ae57fe5b6000918252602080832084546002909302019182556001938401549184019190915583548252898301905260409020908401905586548790806103ed57fe5b60008281526020808220600260001990940193840201828155600190810183905592909355888152898201909252604082209190915594506102849350505050565b5060009392505050565b6000818152600183016020526040812054806104b657604080517f08c379a000000000000000000000000000000000000000000000000000000000815260206004820152601860248201527f456e756d4d61703a206e6f6e6578697374656e74206b65790000000000000000604482015290519081900360640190fd5b8360000160018203815481106104c857fe5b90600052602060002090600202016001015491505092915050565b60009081526001919091016020526040902054151590565b81546000908190831061056f57604080517f08c379a000000000000000000000000000000000000000000000000000000000815260206004820152601c60248201527f456e756d4d61703a20696e646578206f7574206f6620626f756e647300000000604482015290519081900360640190fd5b600084600001848154811061058057fe5b90600052602060002090600202019050806000015481600101549250925050925092905056fea264697066735822122042826364357c1399d29bdd4c8439692c7aaf0347d11763ffa380697d02761b2964736f6c63430006080033",
  "linkReferences": {},
  "deployedLinkReferences": {}
}