{
  "contracts/mocks/utils/types/UInt256BitsMock.sol": {
    "UInt256BitsMock": {
      "abi": [
        {
          "inputs": [
            {
              "internalType": "uint256",
              "name": "integer",
              "type": "uint256"
            },
            {
              "internalType": "uint8",
              "name": "length",
              "type": "uint8"
            },
            {
              "internalType": "uint8",
              "name": "index",
              "type": "uint8"
            }
          ],
          "name": "extract",
          "outputs": [
            {
              "internalType": "uint256",
              "name": "",
              "type": "uint256"
            }
          ],
          "stateMutability": "pure",
          "type": "function"
        },
        {
          "inputs": [
            {
              "internalType": "uint256",
              "name": "integer",
              "type": "uint256"
            },
            {
              "internalType": "uint256",
              "name": "value",
              "type": "uint256"
            },
            {
              "internalType": "uint8",
              "name": "length",
              "type": "uint8"
            },
            {
              "internalType": "uint8",
              "name": "index",
              "type": "uint8"
            }
          ],
          "name": "inject",
          "outputs": [
            {
              "internalType": "uint256",
              "name": "",
              "type": "uint256"
            }
          ],
          "stateMutability": "pure",
          "type": "function"
        },
        {
          "inputs": [
            {
              "internalType": "uint256",
              "name": "integer",
              "type": "uint256"
            },
            {
              "internalType": "uint256",
              "name": "value",
              "type": "uint256"
            },
            {
              "internalType": "uint8",
              "name": "length",
              "type": "uint8"
            },
            {
              "internalType": "uint8",
              "name": "index",
              "type": "uint8"
            }
          ],
          "name": "requireInjectExtractValueUnchanged",
          "outputs": [],
          "stateMutability": "pure",
          "type": "function"
        }
      ],
      "evm": {
        "bytecode": {
          "linkReferences": {},
          "object": "608060405234801561001057600080fd5b506103cd806100206000396000f3fe608060405234801561001057600080fd5b50600436106100415760003560e01c806324aa403214610046578063311699dd1461008c578063f37162c8146100c2575b600080fd5b61007a6004803603608081101561005c57600080fd5b5080359060208101359060ff604082013581169160600135166100f0565b60408051918252519081900360200190f35b6100c0600480360360808110156100a257600080fd5b5080359060208101359060ff60408201358116916060013516610113565b005b61007a600480360360608110156100d857600080fd5b5080359060ff60208201358116916040013516610196565b600061010a858560ff80871690861663ffffffff6101b716565b95945050505050565b61013d60ff8084169083166101308787848463ffffffff6101b716565b919063ffffffff6102d716565b8314610190576040805162461bcd60e51b815260206004820152601560248201527f55496e74323536426974733a206d69736d617463680000000000000000000000604482015290519081900360640190fd5b50505050565b60006101af8460ff80861690851663ffffffff6102d716565b949350505050565b600080831161020d576040805162461bcd60e51b815260206004820152601d60248201527f55496e74323536496e6a6563743a206c656e677468206973207a65726f000000604482015290519081900360640190fd5b6101008383011115610266576040805162461bcd60e51b815260206004820152601a60248201527f55496e74323536496e6a6563743a206f7574206f6620626f6e64000000000000604482015290519081900360640190fd5b6000196001841b01808511156102c3576040805162461bcd60e51b815260206004820152601d60248201527f55496e74323536496e6a6563743a2076616c7565206f766572666c6f77000000604482015290519081900360640190fd5b821b199490941692901b9190911792915050565b600080831161032d576040805162461bcd60e51b815260206004820152601e60248201527f55496e74323536457874726163743a206c656e677468206973207a65726f0000604482015290519081900360640190fd5b6101008383011115610386576040805162461bcd60e51b815260206004820152601b60248201527f55496e74323536457874726163743a206f7574206f6620626f6e640000000000604482015290519081900360640190fd5b50600190911b6000190191901c169056fea2646970667358221220315083d85f8c3e2d0382fc7cb84cd85c9d039b6285cce525f0cab5c0cf58893a64736f6c63430006080033",
          "opcodes": "PUSH1 0x80 PUSH1 0x40 MSTORE CALLVALUE DUP1 ISZERO PUSH2 0x10 JUMPI PUSH1 0x0 DUP1 REVERT JUMPDEST POP PUSH2 0x3CD DUP1 PUSH2 0x20 PUSH1 0x0 CODECOPY PUSH1 0x0 RETURN INVALID PUSH1 0x80 PUSH1 0x40 MSTORE CALLVALUE DUP1 ISZERO PUSH2 0x10 JUMPI PUSH1 0x0 DUP1 REVERT JUMPDEST POP PUSH1 0x4 CALLDATASIZE LT PUSH2 0x41 JUMPI PUSH1 0x0 CALLDATALOAD PUSH1 0xE0 SHR DUP1 PUSH4 0x24AA4032 EQ PUSH2 0x46 JUMPI DUP1 PUSH4 0x311699DD EQ PUSH2 0x8C JUMPI DUP1 PUSH4 0xF37162C8 EQ PUSH2 0xC2 JUMPI JUMPDEST PUSH1 0x0 DUP1 REVERT JUMPDEST PUSH2 0x7A PUSH1 0x4 DUP1 CALLDATASIZE SUB PUSH1 0x80 DUP2 LT ISZERO PUSH2 0x5C JUMPI PUSH1 0x0 DUP1 REVERT JUMPDEST POP DUP1 CALLDATALOAD SWAP1 PUSH1 0x20 DUP2 ADD CALLDATALOAD SWAP1 PUSH1 0xFF PUSH1 0x40 DUP3 ADD CALLDATALOAD DUP2 AND SWAP2 PUSH1 0x60 ADD CALLDATALOAD AND PUSH2 0xF0 JUMP JUMPDEST PUSH1 0x40 DUP1 MLOAD SWAP2 DUP3 MSTORE MLOAD SWAP1 DUP2 SWAP1 SUB PUSH1 0x20 ADD SWAP1 RETURN JUMPDEST PUSH2 0xC0 PUSH1 0x4 DUP1 CALLDATASIZE SUB PUSH1 0x80 DUP2 LT ISZERO PUSH2 0xA2 JUMPI PUSH1 0x0 DUP1 REVERT JUMPDEST POP DUP1 CALLDATALOAD SWAP1 PUSH1 0x20 DUP2 ADD CALLDATALOAD SWAP1 PUSH1 0xFF PUSH1 0x40 DUP3 ADD CALLDATALOAD DUP2 AND SWAP2 PUSH1 0x60 ADD CALLDATALOAD AND PUSH2 0x113 JUMP JUMPDEST STOP JUMPDEST PUSH2 0x7A PUSH1 0x4 DUP1 CALLDATASIZE SUB PUSH1 0x60 DUP2 LT ISZERO PUSH2 0xD8 JUMPI PUSH1 0x0 DUP1 REVERT JUMPDEST POP DUP1 CALLDATALOAD SWAP1 PUSH1 0xFF PUSH1 0x20 DUP3 ADD CALLDATALOAD DUP2 AND SWAP2 PUSH1 0x40 ADD CALLDATALOAD AND PUSH2 0x196 JUMP JUMPDEST PUSH1 0x0 PUSH2 0x10A DUP6 DUP6 PUSH1 0xFF DUP1 DUP8 AND SWAP1 DUP7 AND PUSH4 0xFFFFFFFF PUSH2 0x1B7 AND JUMP JUMPDEST SWAP6 SWAP5 POP POP POP POP POP JUMP JUMPDEST PUSH2 0x13D PUSH1 0xFF DUP1 DUP5 AND SWAP1 DUP4 AND PUSH2 0x130 DUP8 DUP8 DUP5 DUP5 PUSH4 0xFFFFFFFF PUSH2 0x1B7 AND JUMP JUMPDEST SWAP2 SWAP1 PUSH4 0xFFFFFFFF PUSH2 0x2D7 AND JUMP JUMPDEST DUP4 EQ PUSH2 0x190 JUMPI PUSH1 0x40 DUP1 MLOAD PUSH3 0x461BCD PUSH1 0xE5 SHL DUP2 MSTORE PUSH1 0x20 PUSH1 0x4 DUP3 ADD MSTORE PUSH1 0x15 PUSH1 0x24 DUP3 ADD MSTORE PUSH32 0x55496E74323536426974733A206D69736D617463680000000000000000000000 PUSH1 0x44 DUP3 ADD MSTORE SWAP1 MLOAD SWAP1 DUP2 SWAP1 SUB PUSH1 0x64 ADD SWAP1 REVERT JUMPDEST POP POP POP POP JUMP JUMPDEST PUSH1 0x0 PUSH2 0x1AF DUP5 PUSH1 0xFF DUP1 DUP7 AND SWAP1 DUP6 AND PUSH4 0xFFFFFFFF PUSH2 0x2D7 AND JUMP JUMPDEST SWAP5 SWAP4 POP POP POP POP JUMP JUMPDEST PUSH1 0x0 DUP1 DUP4 GT PUSH2 0x20D JUMPI PUSH1 0x40 DUP1 MLOAD PUSH3 0x461BCD PUSH1 0xE5 SHL DUP2 MSTORE PUSH1 0x20 PUSH1 0x4 DUP3 ADD MSTORE PUSH1 0x1D PUSH1 0x24 DUP3 ADD MSTORE PUSH32 0x55496E74323536496E6A6563743A206C656E677468206973207A65726F000000 PUSH1 0x44 DUP3 ADD MSTORE SWAP1 MLOAD SWAP1 DUP2 SWAP1 SUB PUSH1 0x64 ADD SWAP1 REVERT JUMPDEST PUSH2 0x100 DUP4 DUP4 ADD GT ISZERO PUSH2 0x266 JUMPI PUSH1 0x40 DUP1 MLOAD PUSH3 0x461BCD PUSH1 0xE5 SHL DUP2 MSTORE PUSH1 0x20 PUSH1 0x4 DUP3 ADD MSTORE PUSH1 0x1A PUSH1 0x24 DUP3 ADD MSTORE PUSH32 0x55496E74323536496E6A6563743A206F7574206F6620626F6E64000000000000 PUSH1 0x44 DUP3 ADD MSTORE SWAP1 MLOAD SWAP1 DUP2 SWAP1 SUB PUSH1 0x64 ADD SWAP1 REVERT JUMPDEST PUSH1 0x0 NOT PUSH1 0x1 DUP5 SHL ADD DUP1 DUP6 GT ISZERO PUSH2 0x2C3 JUMPI PUSH1 0x40 DUP1 MLOAD PUSH3 0x461BCD PUSH1 0xE5 SHL DUP2 MSTORE PUSH1 0x20 PUSH1 0x4 DUP3 ADD MSTORE PUSH1 0x1D PUSH1 0x24 DUP3 ADD MSTORE PUSH32 0x55496E74323536496E6A6563743A2076616C7565206F766572666C6F77000000 PUSH1 0x44 DUP3 ADD MSTORE SWAP1 MLOAD SWAP1 DUP2 SWAP1 SUB PUSH1 0x64 ADD SWAP1 REVERT JUMPDEST DUP3 SHL NOT SWAP5 SWAP1 SWAP5 AND SWAP3 SWAP1 SHL SWAP2 SWAP1 SWAP2 OR SWAP3 SWAP2 POP POP JUMP JUMPDEST PUSH1 0x0 DUP1 DUP4 GT PUSH2 0x32D JUMPI PUSH1 0x40 DUP1 MLOAD PUSH3 0x461BCD PUSH1 0xE5 SHL DUP2 MSTORE PUSH1 0x20 PUSH1 0x4 DUP3 ADD MSTORE PUSH1 0x1E PUSH1 0x24 DUP3 ADD MSTORE PUSH32 0x55496E74323536457874726163743A206C656E677468206973207A65726F0000 PUSH1 0x44 DUP3 ADD MSTORE SWAP1 MLOAD SWAP1 DUP2 SWAP1 SUB PUSH1 0x64 ADD SWAP1 REVERT JUMPDEST PUSH2 0x100 DUP4 DUP4 ADD GT ISZERO PUSH2 0x386 JUMPI PUSH1 0x40 DUP1 MLOAD PUSH3 0x461BCD PUSH1 0xE5 SHL DUP2 MSTORE PUSH1 0x20 PUSH1 0x4 DUP3 ADD MSTORE PUSH1 0x1B PUSH1 0x24 DUP3 ADD MSTORE PUSH32 0x55496E74323536457874726163743A206F7574206F6620626F6E640000000000 PUSH1 0x44 DUP3 ADD MSTORE SWAP1 MLOAD SWAP1 DUP2 SWAP1 SUB PUSH1 0x64 ADD SWAP1 REVERT JUMPDEST POP PUSH1 0x1 SWAP1 SWAP2 SHL PUSH1 0x0 NOT ADD SWAP2 SWAP1 SHR AND SWAP1 JUMP INVALID LOG2 PUSH5 0x6970667358 0x22 SLT KECCAK256 BALANCE POP DUP4 0xD8 0x5F DUP13 RETURNDATACOPY 0x2D SUB DUP3 0xFC PUSH29 0xB84CD85C9D039B6285CCE525F0CAB5C0CF58893A64736F6C6343000608 STOP CALLER "
        },
        "methodIdentifiers": {
          "extract(uint256,uint8,uint8)": "f37162c8",
          "inject(uint256,uint256,uint8,uint8)": "24aa4032",
          "requireInjectExtractValueUnchanged(uint256,uint256,uint8,uint8)": "311699dd"
        }
      }
    }
  }
}