{
  "contracts/mocks/utils/StartableMock.sol": {
    "StartableMock": {
      "abi": [
        {
          "inputs": [],
          "stateMutability": "nonpayable",
          "type": "constructor"
        },
        {
          "anonymous": false,
          "inputs": [
            {
              "indexed": false,
              "internalType": "address",
              "name": "account",
              "type": "address"
            }
          ],
          "name": "Started",
          "type": "event"
        },
        {
          "inputs": [],
          "name": "start",
          "outputs": [],
          "stateMutability": "nonpayable",
          "type": "function"
        },
        {
          "inputs": [],
          "name": "startedAt",
          "outputs": [
            {
              "internalType": "uint256",
              "name": "",
              "type": "uint256"
            }
          ],
          "stateMutability": "view",
          "type": "function"
        },
        {
          "inputs": [],
          "name": "testWhenNotStarted",
          "outputs": [],
          "stateMutability": "view",
          "type": "function"
        },
        {
          "inputs": [],
          "name": "testWhenStarted",
          "outputs": [],
          "stateMutability": "view",
          "type": "function"
        }
      ],
      "evm": {
        "bytecode": {
          "linkReferences": {},
          "object": "608060405234801561001057600080fd5b50610224806100206000396000f3fe608060405234801561001057600080fd5b506004361061004c5760003560e01c80638b970bf0146100515780639ac2791b1461005b578063be9a655514610063578063f21f537d1461006b575b600080fd5b610059610085565b005b6100596100dc565b610059610130565b610073610138565b60408051918252519081900360200190f35b600054156100da576040805162461bcd60e51b815260206004820152601260248201527f537461727461626c653a20737461727465640000000000000000000000000000604482015290519081900360640190fd5b565b6000546100da576040805162461bcd60e51b815260206004820152601660248201527f537461727461626c653a206e6f74207374617274656400000000000000000000604482015290519081900360640190fd5b6100da61013e565b60005490565b60005415610193576040805162461bcd60e51b815260206004820152601260248201527f537461727461626c653a20737461727465640000000000000000000000000000604482015290519081900360640190fd5b426000557f27029695aa5f602a4ee81f4c32dfa86e562f200a17966496f3a7c3f2ec0f94176101c06101ea565b6040805173ffffffffffffffffffffffffffffffffffffffff9092168252519081900360200190a1565b339056fea264697066735822122047d890320dc5613d039aefd09eb43777c6d30381b32af7242ad93206771cc23364736f6c63430006080033",
          "opcodes": "PUSH1 0x80 PUSH1 0x40 MSTORE CALLVALUE DUP1 ISZERO PUSH2 0x10 JUMPI PUSH1 0x0 DUP1 REVERT JUMPDEST POP PUSH2 0x224 DUP1 PUSH2 0x20 PUSH1 0x0 CODECOPY PUSH1 0x0 RETURN INVALID PUSH1 0x80 PUSH1 0x40 MSTORE CALLVALUE DUP1 ISZERO PUSH2 0x10 JUMPI PUSH1 0x0 DUP1 REVERT JUMPDEST POP PUSH1 0x4 CALLDATASIZE LT PUSH2 0x4C JUMPI PUSH1 0x0 CALLDATALOAD PUSH1 0xE0 SHR DUP1 PUSH4 0x8B970BF0 EQ PUSH2 0x51 JUMPI DUP1 PUSH4 0x9AC2791B EQ PUSH2 0x5B JUMPI DUP1 PUSH4 0xBE9A6555 EQ PUSH2 0x63 JUMPI DUP1 PUSH4 0xF21F537D EQ PUSH2 0x6B JUMPI JUMPDEST PUSH1 0x0 DUP1 REVERT JUMPDEST PUSH2 0x59 PUSH2 0x85 JUMP JUMPDEST STOP JUMPDEST PUSH2 0x59 PUSH2 0xDC JUMP JUMPDEST PUSH2 0x59 PUSH2 0x130 JUMP JUMPDEST PUSH2 0x73 PUSH2 0x138 JUMP JUMPDEST PUSH1 0x40 DUP1 MLOAD SWAP2 DUP3 MSTORE MLOAD SWAP1 DUP2 SWAP1 SUB PUSH1 0x20 ADD SWAP1 RETURN JUMPDEST PUSH1 0x0 SLOAD ISZERO PUSH2 0xDA JUMPI PUSH1 0x40 DUP1 MLOAD PUSH3 0x461BCD PUSH1 0xE5 SHL DUP2 MSTORE PUSH1 0x20 PUSH1 0x4 DUP3 ADD MSTORE PUSH1 0x12 PUSH1 0x24 DUP3 ADD MSTORE PUSH32 0x537461727461626C653A20737461727465640000000000000000000000000000 PUSH1 0x44 DUP3 ADD MSTORE SWAP1 MLOAD SWAP1 DUP2 SWAP1 SUB PUSH1 0x64 ADD SWAP1 REVERT JUMPDEST JUMP JUMPDEST PUSH1 0x0 SLOAD PUSH2 0xDA JUMPI PUSH1 0x40 DUP1 MLOAD PUSH3 0x461BCD PUSH1 0xE5 SHL DUP2 MSTORE PUSH1 0x20 PUSH1 0x4 DUP3 ADD MSTORE PUSH1 0x16 PUSH1 0x24 DUP3 ADD MSTORE PUSH32 0x537461727461626C653A206E6F74207374617274656400000000000000000000 PUSH1 0x44 DUP3 ADD MSTORE SWAP1 MLOAD SWAP1 DUP2 SWAP1 SUB PUSH1 0x64 ADD SWAP1 REVERT JUMPDEST PUSH2 0xDA PUSH2 0x13E JUMP JUMPDEST PUSH1 0x0 SLOAD SWAP1 JUMP JUMPDEST PUSH1 0x0 SLOAD ISZERO PUSH2 0x193 JUMPI PUSH1 0x40 DUP1 MLOAD PUSH3 0x461BCD PUSH1 0xE5 SHL DUP2 MSTORE PUSH1 0x20 PUSH1 0x4 DUP3 ADD MSTORE PUSH1 0x12 PUSH1 0x24 DUP3 ADD MSTORE PUSH32 0x537461727461626C653A20737461727465640000000000000000000000000000 PUSH1 0x44 DUP3 ADD MSTORE SWAP1 MLOAD SWAP1 DUP2 SWAP1 SUB PUSH1 0x64 ADD SWAP1 REVERT JUMPDEST TIMESTAMP PUSH1 0x0 SSTORE PUSH32 0x27029695AA5F602A4EE81F4C32DFA86E562F200A17966496F3A7C3F2EC0F9417 PUSH2 0x1C0 PUSH2 0x1EA JUMP JUMPDEST PUSH1 0x40 DUP1 MLOAD PUSH20 0xFFFFFFFFFFFFFFFFFFFFFFFFFFFFFFFFFFFFFFFF SWAP1 SWAP3 AND DUP3 MSTORE MLOAD SWAP1 DUP2 SWAP1 SUB PUSH1 0x20 ADD SWAP1 LOG1 JUMP JUMPDEST CALLER SWAP1 JUMP INVALID LOG2 PUSH5 0x6970667358 0x22 SLT KECCAK256 SELFBALANCE 0xD8 SWAP1 ORIGIN 0xD 0xC5 PUSH2 0x3D03 SWAP11 0xEF 0xD0 SWAP15 0xB4 CALLDATACOPY PUSH24 0xC6D30381B32AF7242AD93206771CC23364736F6C63430006 ADDMOD STOP CALLER "
        },
        "methodIdentifiers": {
          "start()": "be9a6555",
          "startedAt()": "f21f537d",
          "testWhenNotStarted()": "8b970bf0",
          "testWhenStarted()": "9ac2791b"
        }
      }
    }
  }
}