{
  "_format": "hh-sol-artifact-1",
  "contractName": "PayoutWalletMock",
  "sourceName": "contracts/mocks/payment/PayoutWalletMock.sol",
  "abi": [
    {
      "inputs": [
        {
          "internalType": "address",
          "name": "payoutWallet_",
          "type": "address"
        }
      ],
      "stateMutability": "nonpayable",
      "type": "constructor"
    },
    {
      "anonymous": false,
      "inputs": [
        {
          "indexed": true,
          "internalType": "address",
          "name": "previousOwner",
          "type": "address"
        },
        {
          "indexed": true,
          "internalType": "address",
          "name": "newOwner",
          "type": "address"
        }
      ],
      "name": "OwnershipTransferred",
      "type": "event"
    },
    {
      "anonymous": false,
      "inputs": [
        {
          "indexed": false,
          "internalType": "address",
          "name": "payoutWallet_",
          "type": "address"
        }
      ],
      "name": "PayoutWalletSet",
      "type": "event"
    },
    {
      "inputs": [],
      "name": "owner",
      "outputs": [
        {
          "internalType": "address",
          "name": "",
          "type": "address"
        }
      ],
      "stateMutability": "view",
      "type": "function"
    },
    {
      "inputs": [],
      "name": "payoutWallet",
      "outputs": [
        {
          "internalType": "address payable",
          "name": "",
          "type": "address"
        }
      ],
      "stateMutability": "view",
      "type": "function"
    },
    {
      "inputs": [],
      "name": "renounceOwnership",
      "outputs": [],
      "stateMutability": "nonpayable",
      "type": "function"
    },
    {
      "inputs": [
        {
          "internalType": "address",
          "name": "payoutWallet_",
          "type": "address"
        }
      ],
      "name": "setPayoutWallet",
      "outputs": [],
      "stateMutability": "nonpayable",
      "type": "function"
    },
    {
      "inputs": [
        {
          "internalType": "address",
          "name": "newOwner",
          "type": "address"
        }
      ],
      "name": "transferOwnership",
      "outputs": [],
      "stateMutability": "nonpayable",
      "type": "function"
    }
  ],
  "bytecode": "0x608060405234801561001057600080fd5b506040516107d93803806107d98339818101604052602081101561003357600080fd5b50518060006100496001600160e01b036100ac16565b600080546001600160a01b0319166001600160a01b0383169081178255604051929350917f8be0079c531659141344cd1fd0a4f28419497f9722a3daafe3b4186f6b6457e0908290a3506100a5816001600160e01b036100b016565b5050610299565b3390565b6100c16001600160e01b036100ac16565b6000546001600160a01b03908116911614610123576040805162461bcd60e51b815260206004820181905260248201527f4f776e61626c653a2063616c6c6572206973206e6f7420746865206f776e6572604482015290519081900360640190fd5b6001600160a01b03811661017e576040805162461bcd60e51b815260206004820152601460248201527f5061796f75743a207a65726f2061646472657373000000000000000000000000604482015290519081900360640190fd5b6001600160a01b0381163014156101dc576040805162461bcd60e51b815260206004820152601f60248201527f5061796f75743a207468697320636f6e7472616374206173207061796f757400604482015290519081900360640190fd5b6001546001600160a01b038281169116141561023f576040805162461bcd60e51b815260206004820152601a60248201527f5061796f75743a2073616d65207061796f75742077616c6c6574000000000000604482015290519081900360640190fd5b600180546001600160a01b0319166001600160a01b03838116919091179182905560408051929091168252517fdd880d24a789958a6398c99c2e54ce31bc10a638cbc42f7dd34285479ae0f855916020908290030190a150565b610531806102a86000396000f3fe608060405234801561001057600080fd5b50600436106100675760003560e01c80638488bb4e116100505780638488bb4e1461009c5780638da5cb5b146100c0578063f2fde38b146100c857610067565b80636b8f9c431461006c578063715018a614610094575b600080fd5b6100926004803603602081101561008257600080fd5b50356001600160a01b03166100ee565b005b6100926102db565b6100a461039c565b604080516001600160a01b039092168252519081900360200190f35b6100a46103ab565b610092600480360360208110156100de57600080fd5b50356001600160a01b03166103ba565b6100f66104d1565b6000546001600160a01b03908116911614610158576040805162461bcd60e51b815260206004820181905260248201527f4f776e61626c653a2063616c6c6572206973206e6f7420746865206f776e6572604482015290519081900360640190fd5b6001600160a01b0381166101b3576040805162461bcd60e51b815260206004820152601460248201527f5061796f75743a207a65726f2061646472657373000000000000000000000000604482015290519081900360640190fd5b6001600160a01b038116301415610211576040805162461bcd60e51b815260206004820152601f60248201527f5061796f75743a207468697320636f6e7472616374206173207061796f757400604482015290519081900360640190fd5b6001546001600160a01b0382811691161415610274576040805162461bcd60e51b815260206004820152601a60248201527f5061796f75743a2073616d65207061796f75742077616c6c6574000000000000604482015290519081900360640190fd5b6001805473ffffffffffffffffffffffffffffffffffffffff19166001600160a01b03838116919091179182905560408051929091168252517fdd880d24a789958a6398c99c2e54ce31bc10a638cbc42f7dd34285479ae0f855916020908290030190a150565b6102e36104d1565b6000546001600160a01b03908116911614610345576040805162461bcd60e51b815260206004820181905260248201527f4f776e61626c653a2063616c6c6572206973206e6f7420746865206f776e6572604482015290519081900360640190fd5b600080546040516001600160a01b03909116907f8be0079c531659141344cd1fd0a4f28419497f9722a3daafe3b4186f6b6457e0908390a36000805473ffffffffffffffffffffffffffffffffffffffff19169055565b6001546001600160a01b031681565b6000546001600160a01b031690565b6103c26104d1565b6000546001600160a01b03908116911614610424576040805162461bcd60e51b815260206004820181905260248201527f4f776e61626c653a2063616c6c6572206973206e6f7420746865206f776e6572604482015290519081900360640190fd5b6001600160a01b0381166104695760405162461bcd60e51b81526004018080602001828103825260268152602001806104d66026913960400191505060405180910390fd5b600080546040516001600160a01b03808516939216917f8be0079c531659141344cd1fd0a4f28419497f9722a3daafe3b4186f6b6457e091a36000805473ffffffffffffffffffffffffffffffffffffffff19166001600160a01b0392909216919091179055565b339056fe4f776e61626c653a206e6577206f776e657220697320746865207a65726f2061646472657373a2646970667358221220361c1e5e4daf309fb4d972e7cb5947454def25a5782276ee75363213194e8bcb64736f6c63430006080033",
  "linkReferences": {},
  "deployedLinkReferences": {}
}