{
  "_format": "hh-sol-artifact-1",
  "contractName": "EnumSetMock",
  "sourceName": "contracts/mocks/algo/EnumSetMock.sol",
  "abi": [
    {
      "anonymous": false,
      "inputs": [
        {
          "indexed": false,
          "internalType": "bool",
          "name": "result",
          "type": "bool"
        }
      ],
      "name": "OperationResult",
      "type": "event"
    },
    {
      "inputs": [
        {
          "internalType": "address",
          "name": "value",
          "type": "address"
        }
      ],
      "name": "add",
      "outputs": [],
      "stateMutability": "nonpayable",
      "type": "function"
    },
    {
      "inputs": [
        {
          "internalType": "uint256",
          "name": "index",
          "type": "uint256"
        }
      ],
      "name": "at",
      "outputs": [
        {
          "internalType": "address",
          "name": "",
          "type": "address"
        }
      ],
      "stateMutability": "view",
      "type": "function"
    },
    {
      "inputs": [
        {
          "internalType": "address",
          "name": "value",
          "type": "address"
        }
      ],
      "name": "contains",
      "outputs": [
        {
          "internalType": "bool",
          "name": "",
          "type": "bool"
        }
      ],
      "stateMutability": "view",
      "type": "function"
    },
    {
      "inputs": [],
      "name": "length",
      "outputs": [
        {
          "internalType": "uint256",
          "name": "",
          "type": "uint256"
        }
      ],
      "stateMutability": "view",
      "type": "function"
    },
    {
      "inputs": [
        {
          "internalType": "address",
          "name": "value",
          "type": "address"
        }
      ],
      "name": "remove",
      "outputs": [],
      "stateMutability": "nonpayable",
      "type": "function"
    }
  ],
  "bytecode": "0x608060405234801561001057600080fd5b5061046e806100206000396000f3fe608060405234801561001057600080fd5b50600436106100675760003560e01c806329092d0e1161005057806329092d0e146100bb5780635dbe47e8146100ee578063e0886f901461013557610067565b80630a3b0a4f1461006c5780631f7b6d32146100a1575b600080fd5b61009f6004803603602081101561008257600080fd5b503573ffffffffffffffffffffffffffffffffffffffff1661017b565b005b6100a96101e0565b60408051918252519081900360200190f35b61009f600480360360208110156100d157600080fd5b503573ffffffffffffffffffffffffffffffffffffffff166101f1565b6101216004803603602081101561010457600080fd5b503573ffffffffffffffffffffffffffffffffffffffff16610219565b604080519115158252519081900360200190f35b6101526004803603602081101561014b57600080fd5b5035610247565b6040805173ffffffffffffffffffffffffffffffffffffffff9092168252519081900360200190f35b60006101a38173ffffffffffffffffffffffffffffffffffffffff841663ffffffff61025916565b60408051821515815290519192507fed9840e0775590557ad736875d96c95cf1458b766335f74339951a32c82a9e33919081900360200190a15050565b60006101ec60006102a4565b905090565b60006101a38173ffffffffffffffffffffffffffffffffffffffff841663ffffffff6102a816565b60006102418173ffffffffffffffffffffffffffffffffffffffff841663ffffffff61038c16565b92915050565b6000610241818363ffffffff6103a416565b6000610265838361038c565b61029b57508154600181810184556000848152602080822090930184905584548482528286019093526040902091909155610241565b50600092915050565b5490565b600081815260018301602052604081205480156103825783547fffffffffffffffffffffffffffffffffffffffffffffffffffffffffffffffff80830191908101906000908790839081106102f957fe5b906000526020600020015490508087600001848154811061031657fe5b60009182526020808320909101929092558281526001898101909252604090209084019055865487908061034657fe5b60019003818190600052602060002001600090559055866001016000878152602001908152602001600020600090556001945050505050610241565b6000915050610241565b60009081526001919091016020526040902054151590565b8154600090821061041657604080517f08c379a000000000000000000000000000000000000000000000000000000000815260206004820152601c60248201527f456e756d5365743a20696e646578206f7574206f6620626f756e647300000000604482015290519081900360640190fd5b82600001828154811061042557fe5b906000526020600020015490509291505056fea26469706673582212209794f50916c663e9369363b3121cdf09af889ddf8041cf1aee93ab728969d02a64736f6c63430006080033",
  "linkReferences": {},
  "deployedLinkReferences": {}
}