{
  "_format": "hh-sol-artifact-1",
  "contractName": "StartableMock",
  "sourceName": "contracts/mocks/utils/StartableMock.sol",
  "abi": [
    {
      "inputs": [],
      "stateMutability": "nonpayable",
      "type": "constructor"
    },
    {
      "anonymous": false,
      "inputs": [
        {
          "indexed": false,
          "internalType": "address",
          "name": "account",
          "type": "address"
        }
      ],
      "name": "Started",
      "type": "event"
    },
    {
      "inputs": [],
      "name": "start",
      "outputs": [],
      "stateMutability": "nonpayable",
      "type": "function"
    },
    {
      "inputs": [],
      "name": "startedAt",
      "outputs": [
        {
          "internalType": "uint256",
          "name": "",
          "type": "uint256"
        }
      ],
      "stateMutability": "view",
      "type": "function"
    },
    {
      "inputs": [],
      "name": "testWhenNotStarted",
      "outputs": [],
      "stateMutability": "view",
      "type": "function"
    },
    {
      "inputs": [],
      "name": "testWhenStarted",
      "outputs": [],
      "stateMutability": "view",
      "type": "function"
    }
  ],
  "bytecode": "0x608060405234801561001057600080fd5b50610224806100206000396000f3fe608060405234801561001057600080fd5b506004361061004c5760003560e01c80638b970bf0146100515780639ac2791b1461005b578063be9a655514610063578063f21f537d1461006b575b600080fd5b610059610085565b005b6100596100dc565b610059610130565b610073610138565b60408051918252519081900360200190f35b600054156100da576040805162461bcd60e51b815260206004820152601260248201527f537461727461626c653a20737461727465640000000000000000000000000000604482015290519081900360640190fd5b565b6000546100da576040805162461bcd60e51b815260206004820152601660248201527f537461727461626c653a206e6f74207374617274656400000000000000000000604482015290519081900360640190fd5b6100da61013e565b60005490565b60005415610193576040805162461bcd60e51b815260206004820152601260248201527f537461727461626c653a20737461727465640000000000000000000000000000604482015290519081900360640190fd5b426000557f27029695aa5f602a4ee81f4c32dfa86e562f200a17966496f3a7c3f2ec0f94176101c06101ea565b6040805173ffffffffffffffffffffffffffffffffffffffff9092168252519081900360200190a1565b339056fea264697066735822122047d890320dc5613d039aefd09eb43777c6d30381b32af7242ad93206771cc23364736f6c63430006080033",
  "linkReferences": {},
  "deployedLinkReferences": {}
}